{
  "contractName": "GreenTokenSale",
  "abi": [
    {
      "inputs": [
        {
          "internalType": "contract GreenToken",
          "name": "_token",
          "type": "address"
        }
      ],
      "stateMutability": "nonpayable",
      "type": "constructor"
    },
    {
      "anonymous": false,
      "inputs": [
        {
          "indexed": false,
          "internalType": "address",
          "name": "_buyer",
          "type": "address"
        },
        {
          "indexed": false,
          "internalType": "uint256",
          "name": "_amount",
          "type": "uint256"
        }
      ],
      "name": "Sell",
      "type": "event"
    },
    {
      "inputs": [],
      "name": "admin",
      "outputs": [
        {
          "internalType": "address payable",
          "name": "",
          "type": "address"
        }
      ],
      "stateMutability": "view",
      "type": "function"
    },
    {
      "inputs": [],
      "name": "token",
      "outputs": [
        {
          "internalType": "contract GreenToken",
          "name": "",
          "type": "address"
        }
      ],
      "stateMutability": "view",
      "type": "function"
    },
    {
      "inputs": [],
      "name": "tokenPriceEUR",
      "outputs": [
        {
          "internalType": "int256",
          "name": "",
          "type": "int256"
        }
      ],
      "stateMutability": "view",
      "type": "function"
    },
    {
      "inputs": [],
      "name": "tokensSold",
      "outputs": [
        {
          "internalType": "uint256",
          "name": "",
          "type": "uint256"
        }
      ],
      "stateMutability": "view",
      "type": "function"
    },
    {
      "inputs": [
        {
          "internalType": "uint256",
          "name": "",
          "type": "uint256"
        }
      ],
      "name": "transaction",
      "outputs": [
        {
          "internalType": "address",
          "name": "buyer",
          "type": "address"
        },
        {
          "internalType": "uint256",
          "name": "amount",
          "type": "uint256"
        }
      ],
      "stateMutability": "view",
      "type": "function"
    },
    {
      "inputs": [],
      "name": "transactionCount",
      "outputs": [
        {
          "internalType": "uint256",
          "name": "",
          "type": "uint256"
        }
      ],
      "stateMutability": "view",
      "type": "function"
    },
    {
      "inputs": [],
      "name": "getETHPrice",
      "outputs": [
        {
          "internalType": "int256",
          "name": "",
          "type": "int256"
        }
      ],
      "stateMutability": "view",
      "type": "function"
    },
    {
      "inputs": [],
      "name": "getEURPrice",
      "outputs": [
        {
          "internalType": "int256",
          "name": "",
          "type": "int256"
        }
      ],
      "stateMutability": "view",
      "type": "function"
    },
    {
      "inputs": [],
      "name": "greenTokenPriceInETH",
      "outputs": [
        {
          "internalType": "int256",
          "name": "",
          "type": "int256"
        }
      ],
      "stateMutability": "view",
      "type": "function"
    },
    {
      "inputs": [
        {
          "internalType": "uint256",
          "name": "_amount",
          "type": "uint256"
        }
      ],
      "name": "buyToken",
      "outputs": [],
      "stateMutability": "payable",
      "type": "function"
    },
    {
      "inputs": [],
      "name": "endSale",
      "outputs": [],
      "stateMutability": "nonpayable",
      "type": "function"
    }
  ],
  "bytecode": "0x6080604052600280546001600160a01b031916730a203d5bff9c3f9adafaff4faeab6c7512ed40e917905534801561003657600080fd5b50604051610988380380610988833981016040819052610055916100c9565b600680546001600160a01b0319908116739326bfa02add2366b30bacb125260af64103133117909155600780548216730c15ab9a0db086e062194c273cc79f41597bbf1317905560016004819055600080546001600160a01b039490941693831693909317909255815416331790556100f9565b6000602082840312156100db57600080fd5b81516001600160a01b03811681146100f257600080fd5b9392505050565b610880806101086000396000f3fe60806040526004361061009c5760003560e01c8063a607a8d911610064578063a607a8d914610169578063b77bf6001461017e578063dd96f0bc14610194578063f851a440146101a9578063fc0c546a146101e1578063ffed7e7e1461020157600080fd5b80632d296bf1146100a1578063380d831b146100b657806346bd0841146100cb578063518ab2a81461012f578063803ef1a714610153575b600080fd5b6100b46100af366004610676565b610216565b005b3480156100c257600080fd5b506100b4610418565b3480156100d757600080fd5b5061010b6100e6366004610676565b600860205260009081526040902080546001909101546001600160a01b039091169082565b604080516001600160a01b0390931683526020830191909152015b60405180910390f35b34801561013b57600080fd5b5061014560035481565b604051908152602001610126565b34801561015f57600080fd5b5061014560045481565b34801561017557600080fd5b5061014561052e565b34801561018a57600080fd5b5061014560055481565b3480156101a057600080fd5b506101456105c4565b3480156101b557600080fd5b506001546101c9906001600160a01b031681565b6040516001600160a01b039091168152602001610126565b3480156101ed57600080fd5b506000546101c9906001600160a01b031681565b34801561020d57600080fd5b506101456105f1565b60006102206105c4565b905061022c82826106a5565b34121561023857600080fd5b6000546040516370a0823160e01b815230600482015283916001600160a01b0316906370a0823190602401602060405180830381865afa158015610280573d6000803e3d6000fd5b505050506040513d601f19601f820116820180604052508101906102a4919061072a565b10156102af57600080fd5b60005460405163a9059cbb60e01b8152336004820152602481018490526001600160a01b039091169063a9059cbb906044016020604051808303816000875af1158015610300573d6000803e3d6000fd5b505050506040513d601f19601f820116820180604052508101906103249190610743565b61032d57600080fd5b6002546040516001600160a01b03909116903480156108fc02916000818181858888f19350505050158015610366573d6000803e3d6000fd5b508160036000828254610379919061076c565b909155505060408051808201825233815260208082018581526005805460009081526008909352938220925183546001600160a01b0319166001600160a01b0390911617835551600190920191909155815491906103d683610784565b909155505060408051338152602081018490527f5e5e995ce3133561afceaa51a9a154d5db228cd7525d34df5185582c18d3df09910160405180910390a15050565b6001546001600160a01b0316331461042f57600080fd5b600080546040516370a0823160e01b81523060048201526001600160a01b03909116906370a0823190602401602060405180830381865afa158015610478573d6000803e3d6000fd5b505050506040513d601f19601f8201168201806040525081019061049c919061072a565b60005460015460405163a9059cbb60e01b81526001600160a01b03918216600482015260248101849052929350169063a9059cbb906044016020604051808303816000875af11580156104f3573d6000803e3d6000fd5b505050506040513d601f19601f820116820180604052508101906105179190610743565b61052057600080fd5b6001546001600160a01b0316ff5b600080600660009054906101000a90046001600160a01b03166001600160a01b031663feaf968c6040518163ffffffff1660e01b815260040160a060405180830381865afa158015610584573d6000803e3d6000fd5b505050506040513d601f19601f820116820180604052508101906105a891906107be565b5050509150506305f5e100816105be919061080e565b91505090565b6000806105cf6105f1565b6105d761052e565b6105e1919061080e565b9050806004546105be919061080e565b600080600760009054906101000a90046001600160a01b03166001600160a01b031663feaf968c6040518163ffffffff1660e01b815260040160a060405180830381865afa158015610647573d6000803e3d6000fd5b505050506040513d601f19601f8201168201806040525081019061066b91906107be565b509195945050505050565b60006020828403121561068857600080fd5b5035919050565b634e487b7160e01b600052601160045260246000fd5b60006001600160ff1b03818413828413808216868404861116156106cb576106cb61068f565b600160ff1b60008712828116878305891216156106ea576106ea61068f565b600087129250878205871284841616156107065761070661068f565b8785058712818416161561071c5761071c61068f565b505050929093029392505050565b60006020828403121561073c57600080fd5b5051919050565b60006020828403121561075557600080fd5b8151801515811461076557600080fd5b9392505050565b6000821982111561077f5761077f61068f565b500190565b60006000198214156107985761079861068f565b5060010190565b805169ffffffffffffffffffff811681146107b957600080fd5b919050565b600080600080600060a086880312156107d657600080fd5b6107df8661079f565b94506020860151935060408601519250606086015191506108026080870161079f565b90509295509295909350565b60008261082b57634e487b7160e01b600052601260045260246000fd5b600160ff1b8214600019841416156108455761084561068f565b50059056fea26469706673582212201062f526158a51d41347cc0e0166196cec39f1a02f749f058e61e312fa5a44d064736f6c634300080b0033",
  "immutableReferences": {},
  "source": "// SPDX-License-Identifier: MIT\n\npragma solidity ^0.8.0;\n\nimport './GreenToken.sol';\nimport \"@chainlink/contracts/src/v0.8/interfaces/AggregatorV3Interface.sol\";\nimport \"@chainlink/contracts/src/v0.8/Denominations.sol\";\n\ncontract GreenTokenSale {\n    GreenToken public token;\n    address payable public admin;\n    address payable private ethFunds = payable(0x0A203D5bFf9c3f9AdAFaFF4fAeAb6c7512Ed40E9); // Baka para olan bir hesap\n    uint256 public tokensSold;\n    int public tokenPriceEUR;\n    uint256 public transactionCount;\n    AggregatorV3Interface internal priceFeed1; //ETH/USD\n    AggregatorV3Interface internal priceFeed2; //EUR/USD\n    \n    //uint8 public decimals;\n\n\n    event Sell(address _buyer, uint256 _amount);\n\n    struct Transaction {\n        address buyer;\n        uint256 amount;\n    }\n\n    mapping(uint256 => Transaction) public transaction;\n\n\n\n    constructor(GreenToken _token) {\n        priceFeed1 = AggregatorV3Interface(0x9326BFA02ADD2366b30bacB125260Af641031331);\n        priceFeed2 = AggregatorV3Interface(0x0c15Ab9A0DB086e062194c273CC79f41597Bbf13);\n        tokenPriceEUR = 1;\n        token = _token;\n        admin = payable(msg.sender);\n        //decimals = 2;\n        \n    }\n\n    // function decimals() public view virtual override returns (uint8) {\n    //         return 2;\n    // }\n    \n    \n    \n    function getETHPrice() public view returns(int) {\n        (, int price1, , , ) = priceFeed1.latestRoundData();\n        return (price1 / 10**8);\n    }\n\n    function getEURPrice() public view returns(int) {\n        (, int price2, , , ) = priceFeed2.latestRoundData();\n        return (price2);\n    }\n    \n\n    function greenTokenPriceInETH() public view returns(int) {\n        int ethPrice = getETHPrice() / getEURPrice();\n        return tokenPriceEUR / ethPrice;\n    }\n\n    function buyToken(uint256 _amount) public payable {\n        int greenTokenPriceETH = greenTokenPriceInETH();\n        // Check that the buyer sends the enough ETH\n        require(int(msg.value) >= greenTokenPriceETH * int(_amount));\n        // Check that the sale contract provides the enough ETH to make this transaction.\n        require(token.balanceOf(address(this)) >= _amount);\n        // Make the transaction inside of the require\n        // transfer returns a boolean value.\n        require(token.transfer(msg.sender, _amount));\n        // Transfer the ETH of the buyer to us\n        ethFunds.transfer(msg.value);\n        // Increase the amount of tokens sold\n        tokensSold += _amount;\n        // Increase the amount of transactions\n        transaction[transactionCount] = Transaction(msg.sender, _amount);\n        transactionCount++;\n        // Emit the Sell event\n        emit Sell(msg.sender, _amount);\n    }\n\n    function endSale() public {\n        require(msg.sender == admin);\n        // Return the tokens that were left inside of the sale contract\n        uint256 amount = token.balanceOf(address(this));\n        require(token.transfer(admin, amount));\n        selfdestruct(payable(admin));\n    }\n\n}",
  "sourcePath": "C:\\Users\\OuZ\\Desktop\\GreenToken - Rev1\\contracts\\GreenTokenSale.sol",
  "compiler": {
    "name": "solc",
    "version": "0.8.11+commit.d7f03943.Emscripten.clang"
  },
  "schemaVersion": "3.4.8",
  "updatedAt": "2022-07-23T20:49:20.084Z",
  "networkType": "ethereum",
  "devdoc": {
    "kind": "dev",
    "methods": {},
    "version": 1
  },
  "userdoc": {
    "kind": "user",
    "methods": {},
    "version": 1
  }
}